{
  "contractName": "SmartCar",
  "abi": [
    {
      "inputs": [],
      "payable": true,
      "stateMutability": "payable",
      "type": "constructor"
    },
    {
      "anonymous": false,
      "inputs": [
        {
          "indexed": false,
          "internalType": "address",
          "name": "_currentDriverAddress",
          "type": "address"
        },
        {
          "indexed": false,
          "internalType": "uint256",
          "name": "_now",
          "type": "uint256"
        },
        {
          "indexed": false,
          "internalType": "bool",
          "name": "_endWithinPeriod",
          "type": "bool"
        }
      ],
      "name": "E_EndRentCar",
      "type": "event"
    },
    {
      "anonymous": false,
      "inputs": [
        {
          "indexed": false,
          "internalType": "address",
          "name": "_currentDriverAddress",
          "type": "address"
        },
        {
          "indexed": false,
          "internalType": "uint256",
          "name": "_val",
          "type": "uint256"
        },
        {
          "indexed": false,
          "internalType": "uint256",
          "name": "_currentDriveStartTime",
          "type": "uint256"
        },
        {
          "indexed": false,
          "internalType": "uint256",
          "name": "_currentDriveRequiredEndTime",
          "type": "uint256"
        }
      ],
      "name": "E_RentCarDaily",
      "type": "event"
    },
    {
      "anonymous": false,
      "inputs": [
        {
          "indexed": false,
          "internalType": "string",
          "name": "_msg",
          "type": "string"
        }
      ],
      "name": "UpdateStatus",
      "type": "event"
    },
    {
      "anonymous": false,
      "inputs": [
        {
          "indexed": false,
          "internalType": "string",
          "name": "_msg",
          "type": "string"
        },
        {
          "indexed": false,
          "internalType": "address",
          "name": "user",
          "type": "address"
        },
        {
          "indexed": false,
          "internalType": "uint256",
          "name": "amount",
          "type": "uint256"
        }
      ],
      "name": "UserStatus",
      "type": "event"
    },
    {
      "constant": true,
      "inputs": [],
      "name": "CANCEL_COST",
      "outputs": [
        {
          "internalType": "uint256",
          "name": "",
          "type": "uint256"
        }
      ],
      "payable": false,
      "stateMutability": "view",
      "type": "function"
    },
    {
      "constant": true,
      "inputs": [],
      "name": "CONTRACT_COST",
      "outputs": [
        {
          "internalType": "uint256",
          "name": "",
          "type": "uint256"
        }
      ],
      "payable": false,
      "stateMutability": "view",
      "type": "function"
    },
    {
      "constant": true,
      "inputs": [],
      "name": "MAX_DAYS",
      "outputs": [
        {
          "internalType": "uint256",
          "name": "",
          "type": "uint256"
        }
      ],
      "payable": false,
      "stateMutability": "view",
      "type": "function"
    },
    {
      "constant": true,
      "inputs": [],
      "name": "RATE_DAILYRENTAL",
      "outputs": [
        {
          "internalType": "uint256",
          "name": "",
          "type": "uint256"
        }
      ],
      "payable": false,
      "stateMutability": "view",
      "type": "function"
    },
    {
      "constant": true,
      "inputs": [],
      "name": "allowCarUse",
      "outputs": [
        {
          "internalType": "bool",
          "name": "",
          "type": "bool"
        }
      ],
      "payable": false,
      "stateMutability": "view",
      "type": "function"
    },
    {
      "constant": true,
      "inputs": [],
      "name": "canAccess",
      "outputs": [
        {
          "internalType": "bool",
          "name": "",
          "type": "bool"
        }
      ],
      "payable": false,
      "stateMutability": "view",
      "type": "function"
    },
    {
      "constant": true,
      "inputs": [],
      "name": "carIsReady",
      "outputs": [
        {
          "internalType": "bool",
          "name": "",
          "type": "bool"
        }
      ],
      "payable": false,
      "stateMutability": "view",
      "type": "function"
    },
    {
      "constant": true,
      "inputs": [],
      "name": "clientDeposit",
      "outputs": [
        {
          "internalType": "uint256",
          "name": "",
          "type": "uint256"
        }
      ],
      "payable": false,
      "stateMutability": "view",
      "type": "function"
    },
    {
      "constant": true,
      "inputs": [],
      "name": "clientReady",
      "outputs": [
        {
          "internalType": "bool",
          "name": "",
          "type": "bool"
        }
      ],
      "payable": false,
      "stateMutability": "view",
      "type": "function"
    },
    {
      "constant": true,
      "inputs": [],
      "name": "contractAvailable",
      "outputs": [
        {
          "internalType": "bool",
          "name": "",
          "type": "bool"
        }
      ],
      "payable": false,
      "stateMutability": "view",
      "type": "function"
    },
    {
      "constant": true,
      "inputs": [],
      "name": "currentCarStatus",
      "outputs": [
        {
          "internalType": "enum SmartCar.CarStatus",
          "name": "",
          "type": "uint8"
        }
      ],
      "payable": false,
      "stateMutability": "view",
      "type": "function"
    },
    {
      "constant": true,
      "inputs": [],
      "name": "currentDriveRequiredEndTime",
      "outputs": [
        {
          "internalType": "uint256",
          "name": "",
          "type": "uint256"
        }
      ],
      "payable": false,
      "stateMutability": "view",
      "type": "function"
    },
    {
      "constant": true,
      "inputs": [],
      "name": "currentDriveStartTime",
      "outputs": [
        {
          "internalType": "uint256",
          "name": "",
          "type": "uint256"
        }
      ],
      "payable": false,
      "stateMutability": "view",
      "type": "function"
    },
    {
      "constant": true,
      "inputs": [],
      "name": "currentDriverAddress",
      "outputs": [
        {
          "internalType": "address payable",
          "name": "",
          "type": "address"
        }
      ],
      "payable": false,
      "stateMutability": "view",
      "type": "function"
    },
    {
      "constant": true,
      "inputs": [],
      "name": "currentDriverInfo",
      "outputs": [
        {
          "internalType": "enum SmartCar.DriverInformation",
          "name": "",
          "type": "uint8"
        }
      ],
      "payable": false,
      "stateMutability": "view",
      "type": "function"
    },
    {
      "constant": true,
      "inputs": [],
      "name": "currentWithdrawTime",
      "outputs": [
        {
          "internalType": "uint256",
          "name": "",
          "type": "uint256"
        }
      ],
      "payable": false,
      "stateMutability": "view",
      "type": "function"
    },
    {
      "constant": true,
      "inputs": [],
      "name": "extraTimeTaken",
      "outputs": [
        {
          "internalType": "bool",
          "name": "",
          "type": "bool"
        }
      ],
      "payable": false,
      "stateMutability": "view",
      "type": "function"
    },
    {
      "constant": true,
      "inputs": [],
      "name": "owner",
      "outputs": [
        {
          "internalType": "address payable",
          "name": "",
          "type": "address"
        }
      ],
      "payable": false,
      "stateMutability": "view",
      "type": "function"
    },
    {
      "constant": true,
      "inputs": [],
      "name": "ownerBalance",
      "outputs": [
        {
          "internalType": "uint256",
          "name": "",
          "type": "uint256"
        }
      ],
      "payable": false,
      "stateMutability": "view",
      "type": "function"
    },
    {
      "constant": true,
      "inputs": [],
      "name": "ownerDeposit",
      "outputs": [
        {
          "internalType": "uint256",
          "name": "",
          "type": "uint256"
        }
      ],
      "payable": false,
      "stateMutability": "view",
      "type": "function"
    },
    {
      "constant": true,
      "inputs": [],
      "name": "ownerReady",
      "outputs": [
        {
          "internalType": "bool",
          "name": "",
          "type": "bool"
        }
      ],
      "payable": false,
      "stateMutability": "view",
      "type": "function"
    },
    {
      "constant": false,
      "inputs": [
        {
          "internalType": "address",
          "name": "_user",
          "type": "address"
        }
      ],
      "name": "allowCarUsage",
      "outputs": [],
      "payable": false,
      "stateMutability": "nonpayable",
      "type": "function"
    },
    {
      "constant": false,
      "inputs": [
        {
          "internalType": "address",
          "name": "_user",
          "type": "address"
        }
      ],
      "name": "accessCar",
      "outputs": [],
      "payable": false,
      "stateMutability": "nonpayable",
      "type": "function"
    },
    {
      "constant": false,
      "inputs": [
        {
          "internalType": "address",
          "name": "_user",
          "type": "address"
        }
      ],
      "name": "nonAccessWithdrawal",
      "outputs": [],
      "payable": false,
      "stateMutability": "nonpayable",
      "type": "function"
    },
    {
      "constant": false,
      "inputs": [],
      "name": "rentCar",
      "outputs": [],
      "payable": true,
      "stateMutability": "payable",
      "type": "function"
    },
    {
      "constant": false,
      "inputs": [],
      "name": "endRentCar",
      "outputs": [],
      "payable": false,
      "stateMutability": "nonpayable",
      "type": "function"
    },
    {
      "constant": false,
      "inputs": [
        {
          "internalType": "address",
          "name": "_user",
          "type": "address"
        }
      ],
      "name": "cancelBooking",
      "outputs": [],
      "payable": false,
      "stateMutability": "nonpayable",
      "type": "function"
    },
    {
      "constant": false,
      "inputs": [],
      "name": "ownerEndsSmartContract",
      "outputs": [],
      "payable": false,
      "stateMutability": "nonpayable",
      "type": "function"
    },
    {
      "constant": false,
      "inputs": [
        {
          "internalType": "uint256",
          "name": "_rate",
          "type": "uint256"
        }
      ],
      "name": "setDailyRentalRate",
      "outputs": [],
      "payable": false,
      "stateMutability": "nonpayable",
      "type": "function"
    },
    {
      "constant": false,
      "inputs": [
        {
          "internalType": "bool",
          "name": "_ready",
          "type": "bool"
        }
      ],
      "name": "setCarReady",
      "outputs": [],
      "payable": false,
      "stateMutability": "nonpayable",
      "type": "function"
    }
  ],
  "bytecode": "0x6080604052674563918244f4000060005560036001556000600860006101000a81548160ff0219169083151502179055506000600860016101000a81548160ff021916908315150217905550670de0b6b3a7640000600d556002600d548161006357fe5b04600e5560005434146100de576040517f08c379a00000000000000000000000000000000000000000000000000000000081526004018080602001828103825260168152602001807f73686f756c64206465706f73697420352065746865720000000000000000000081525060200191505060405180910390fd5b33600860036101000a81548173ffffffffffffffffffffffffffffffffffffffff021916908373ffffffffffffffffffffffffffffffffffffffff160217905550346003819055506000600860196101000a81548160ff0219169083600181111561014557fe5b02179055506000600860186101000a81548160ff0219169083600181111561016957fe5b02179055506001600860176101000a81548160ff0219169083151502179055506000600860006101000a81548160ff0219169083151502179055506000600860016101000a81548160ff0219169083151502179055506000600260016101000a81548160ff0219169083151502179055506001600860026101000a81548160ff0219169083151502179055506128d0806102046000396000f3fe6080604052600436106101cd5760003560e01c80636ba9a9df116100f7578063a71ce90111610095578063bedcf00311610064578063bedcf00314610729578063f07ff64114610754578063f0cdd8a11461077f578063f7c113df146107ae576101cd565b8063a71ce9011461064d578063aa1953cc146106a4578063b3a6af29146106d3578063ba46d7e2146106fe576101cd565b806382394694116100d1578063823946941461054b57806389c01b7e1461059c5780638da5cb5b146105c75780639e4c05301461061e576101cd565b80636ba9a9df146104b857806379882f2b146104f15780637b1aa45f14610520576101cd565b806351cef9931161016f5780635c11482e1161013e5780635c11482e14610403578063670f7d0414610454578063693eafff146104835780636ae241b3146104ae576101cd565b806351cef993146103495780635362272314610386578063552765e6146103b157806357c9a6a7146103ec576101cd565b8063182f9ac7116101ab578063182f9ac7146102735780631f1c2445146102c457806326b02afa146102ef57806350720e051461031e576101cd565b806308139789146101d257806313cdb1011461020b57806314c5940114610222575b600080fd5b3480156101de57600080fd5b506101e76107dd565b604051808260018111156101f757fe5b60ff16815260200191505060405180910390f35b34801561021757600080fd5b506102206107f0565b005b34801561022e57600080fd5b506102716004803603602081101561024557600080fd5b81019080803573ffffffffffffffffffffffffffffffffffffffff169060200190929190505050610ac3565b005b34801561027f57600080fd5b506102c26004803603602081101561029657600080fd5b81019080803573ffffffffffffffffffffffffffffffffffffffff169060200190929190505050610e8d565b005b3480156102d057600080fd5b506102d9611072565b6040518082815260200191505060405180910390f35b3480156102fb57600080fd5b50610304611078565b604051808215151515815260200191505060405180910390f35b34801561032a57600080fd5b5061033361108b565b6040518082815260200191505060405180910390f35b34801561035557600080fd5b506103846004803603602081101561036c57600080fd5b81019080803515159060200190929190505050611091565b005b34801561039257600080fd5b5061039b611171565b6040518082815260200191505060405180910390f35b3480156103bd57600080fd5b506103ea600480360360208110156103d457600080fd5b8101908080359060200190929190505050611177565b005b3480156103f857600080fd5b50610401611244565b005b34801561040f57600080fd5b506104526004803603602081101561042657600080fd5b81019080803573ffffffffffffffffffffffffffffffffffffffff169060200190929190505050611afe565b005b34801561046057600080fd5b50610469611d65565b604051808215151515815260200191505060405180910390f35b34801561048f57600080fd5b50610498611d78565b6040518082815260200191505060405180910390f35b6104b6611d7e565b005b3480156104c457600080fd5b506104cd6120e5565b604051808260018111156104dd57fe5b60ff16815260200191505060405180910390f35b3480156104fd57600080fd5b506105066120f8565b604051808215151515815260200191505060405180910390f35b34801561052c57600080fd5b5061053561210b565b6040518082815260200191505060405180910390f35b34801561055757600080fd5b5061059a6004803603602081101561056e57600080fd5b81019080803573ffffffffffffffffffffffffffffffffffffffff169060200190929190505050612111565b005b3480156105a857600080fd5b506105b16126b6565b6040518082815260200191505060405180910390f35b3480156105d357600080fd5b506105dc6126bc565b604051808273ffffffffffffffffffffffffffffffffffffffff1673ffffffffffffffffffffffffffffffffffffffff16815260200191505060405180910390f35b34801561062a57600080fd5b506106336126e2565b604051808215151515815260200191505060405180910390f35b34801561065957600080fd5b506106626126f5565b604051808273ffffffffffffffffffffffffffffffffffffffff1673ffffffffffffffffffffffffffffffffffffffff16815260200191505060405180910390f35b3480156106b057600080fd5b506106b961271b565b604051808215151515815260200191505060405180910390f35b3480156106df57600080fd5b506106e861272e565b6040518082815260200191505060405180910390f35b34801561070a57600080fd5b50610713612734565b6040518082815260200191505060405180910390f35b34801561073557600080fd5b5061073e61273a565b6040518082815260200191505060405180910390f35b34801561076057600080fd5b50610769612740565b6040518082815260200191505060405180910390f35b34801561078b57600080fd5b50610794612746565b604051808215151515815260200191505060405180910390f35b3480156107ba57600080fd5b506107c3612759565b604051808215151515815260200191505060405180910390f35b600860199054906101000a900460ff1681565b600860029054906101000a900460ff16610872576040517f08c379a00000000000000000000000000000000000000000000000000000000081526004018080602001828103825260168152602001807f636f6e7472616374206e6f7420617661696c61626c650000000000000000000081525060200191505060405180910390fd5b3373ffffffffffffffffffffffffffffffffffffffff16600860039054906101000a900473ffffffffffffffffffffffffffffffffffffffff1673ffffffffffffffffffffffffffffffffffffffff1614610935576040517f08c379a00000000000000000000000000000000000000000000000000000000081526004018080602001828103825260098152602001807f6e6f74206f776e6572000000000000000000000000000000000000000000000081525060200191505060405180910390fd5b6000600181111561094257fe5b600860189054906101000a900460ff16600181111561095d57fe5b146109d0576040517f08c379a000000000000000000000000000000000000000000000000000000000815260040180806020018281038252600c8152602001807f436172206e6f742049646c65000000000000000000000000000000000000000081525060200191505060405180910390fd5b6000600860026101000a81548160ff021916908315150217905550600860039054906101000a900473ffffffffffffffffffffffffffffffffffffffff1673ffffffffffffffffffffffffffffffffffffffff166108fc6003549081150290604051600060405180830381858888f19350505050158015610a55573d6000803e3d6000fd5b50600960009054906101000a900473ffffffffffffffffffffffffffffffffffffffff1673ffffffffffffffffffffffffffffffffffffffff166108fc6004549081150290604051600060405180830381858888f19350505050158015610ac0573d6000803e3d6000fd5b50565b600860029054906101000a900460ff16610b45576040517f08c379a00000000000000000000000000000000000000000000000000000000081526004018080602001828103825260168152602001807f636f6e7472616374206e6f7420617661696c61626c650000000000000000000081525060200191505060405180910390fd5b600860179054906101000a900460ff16610bc7576040517f08c379a00000000000000000000000000000000000000000000000000000000081526004018080602001828103825260108152602001807f636172206973206e6f742072656164790000000000000000000000000000000081525060200191505060405180910390fd5b600960009054906101000a900473ffffffffffffffffffffffffffffffffffffffff1673ffffffffffffffffffffffffffffffffffffffff168173ffffffffffffffffffffffffffffffffffffffff1614610c8a576040517f08c379a00000000000000000000000000000000000000000000000000000000081526004018080602001828103825260128152602001807f6e6f7420636c69656e742061646472657373000000000000000000000000000081525060200191505060405180910390fd5b60001515600860009054906101000a900460ff16151514610d13576040517f08c379a000000000000000000000000000000000000000000000000000000000815260040180806020018281038252600e8152602001807f43617255736520616c6c6f77656400000000000000000000000000000000000081525060200191505060405180910390fd5b600b544211610d6d576040517f08c379a000000000000000000000000000000000000000000000000000000000815260040180806020018281038252603c815260200180612860603c913960400191505060405180910390fd5b600d546003541115610df657600d5460035403600381905550600960009054906101000a900473ffffffffffffffffffffffffffffffffffffffff1673ffffffffffffffffffffffffffffffffffffffff166108fc600d549081150290604051600060405180830381858888f19350505050158015610df0573d6000803e3d6000fd5b50610e6a565b600960009054906101000a900473ffffffffffffffffffffffffffffffffffffffff1673ffffffffffffffffffffffffffffffffffffffff166108fc6003549081150290604051600060405180830381858888f19350505050158015610e60573d6000803e3d6000fd5b5060006003819055505b6107084201600b81905550600d546003541015610e8a57610e8961276c565b5b50565b600860029054906101000a900460ff16610f0f576040517f08c379a00000000000000000000000000000000000000000000000000000000081526004018080602001828103825260168152602001807f636f6e7472616374206e6f7420617661696c61626c650000000000000000000081525060200191505060405180910390fd5b600860179054906101000a900460ff16610f91576040517f08c379a00000000000000000000000000000000000000000000000000000000081526004018080602001828103825260108152602001807f636172206973206e6f742072656164790000000000000000000000000000000081525060200191505060405180910390fd5b600860039054906101000a900473ffffffffffffffffffffffffffffffffffffffff1673ffffffffffffffffffffffffffffffffffffffff168173ffffffffffffffffffffffffffffffffffffffff1614611054576040517f08c379a00000000000000000000000000000000000000000000000000000000081526004018080602001828103825260118152602001807f6e6f74206f776e6572206164647265737300000000000000000000000000000081525060200191505060405180910390fd5b6001600860006101000a81548160ff02191690831515021790555050565b60005481565b600860029054906101000a900460ff1681565b600d5481565b3373ffffffffffffffffffffffffffffffffffffffff16600860039054906101000a900473ffffffffffffffffffffffffffffffffffffffff1673ffffffffffffffffffffffffffffffffffffffff1614611154576040517f08c379a00000000000000000000000000000000000000000000000000000000081526004018080602001828103825260098152602001807f6e6f74206f776e6572000000000000000000000000000000000000000000000081525060200191505060405180910390fd5b80600860176101000a81548160ff02191690831515021790555050565b600e5481565b3373ffffffffffffffffffffffffffffffffffffffff16600860039054906101000a900473ffffffffffffffffffffffffffffffffffffffff1673ffffffffffffffffffffffffffffffffffffffff161461123a576040517f08c379a00000000000000000000000000000000000000000000000000000000081526004018080602001828103825260098152602001807f6e6f74206f776e6572000000000000000000000000000000000000000000000081525060200191505060405180910390fd5b80600d8190555050565b600860029054906101000a900460ff166112c6576040517f08c379a00000000000000000000000000000000000000000000000000000000081526004018080602001828103825260168152602001807f636f6e7472616374206e6f7420617661696c61626c650000000000000000000081525060200191505060405180910390fd5b600860179054906101000a900460ff16611348576040517f08c379a00000000000000000000000000000000000000000000000000000000081526004018080602001828103825260108152602001807f636172206973206e6f742072656164790000000000000000000000000000000081525060200191505060405180910390fd5b60018081111561135457fe5b600860189054906101000a900460ff16600181111561136f57fe5b146113e2576040517f08c379a00000000000000000000000000000000000000000000000000000000081526004018080602001828103825260048152602001807f787878780000000000000000000000000000000000000000000000000000000081525060200191505060405180910390fd5b6001808111156113ee57fe5b600860199054906101000a900460ff16600181111561140957fe5b1461147c576040517f08c379a00000000000000000000000000000000000000000000000000000000081526004018080602001828103825260028152602001807f787800000000000000000000000000000000000000000000000000000000000081525060200191505060405180910390fd5b600860019054906101000a900460ff166114fe576040517f08c379a00000000000000000000000000000000000000000000000000000000081526004018080602001828103825260168152602001807f43617220776173206e657665722061636365737365640000000000000000000081525060200191505060405180910390fd5b600c54421115611524576001600660006101000a81548160ff0219169083151502179055505b600d5460058190555062015180600c5442038161153d57fe5b0460078190555060011515600660009054906101000a900460ff16151514801561156a5750600154600754105b1561158657600d54600754026005600082825401925050819055505b6005546004540360048190555060011515600660009054906101000a900460ff1615151480156115ba575060015460075410155b1561182e57600860039054906101000a900473ffffffffffffffffffffffffffffffffffffffff1673ffffffffffffffffffffffffffffffffffffffff163373ffffffffffffffffffffffffffffffffffffffff1614611682576040517f08c379a00000000000000000000000000000000000000000000000000000000081526004018080602001828103825260028152602001807f787800000000000000000000000000000000000000000000000000000000000081525060200191505060405180910390fd5b7fe82220aacc601b0a8a556e696c850b5157d182f2ad8dfe51b09f09d4cb078de1600960009054906101000a900473ffffffffffffffffffffffffffffffffffffffff16426000604051808473ffffffffffffffffffffffffffffffffffffffff1673ffffffffffffffffffffffffffffffffffffffff16815260200183815260200182151515158152602001935050505060405180910390a16000600481905550600860039054906101000a900473ffffffffffffffffffffffffffffffffffffffff1673ffffffffffffffffffffffffffffffffffffffff166108fc6000549081150290604051600060405180830381858888f1935050505015801561178e573d6000803e3d6000fd5b506000600960006101000a81548173ffffffffffffffffffffffffffffffffffffffff021916908373ffffffffffffffffffffffffffffffffffffffff1602179055506000600860186101000a81548160ff021916908360018111156117f057fe5b02179055506000600860196101000a81548160ff0219169083600181111561181457fe5b02179055506000600a8190555061182961276c565b611afc565b600960009054906101000a900473ffffffffffffffffffffffffffffffffffffffff1673ffffffffffffffffffffffffffffffffffffffff163373ffffffffffffffffffffffffffffffffffffffff16146118f1576040517f08c379a00000000000000000000000000000000000000000000000000000000081526004018080602001828103825260018152602001807f780000000000000000000000000000000000000000000000000000000000000081525060200191505060405180910390fd5b7fe82220aacc601b0a8a556e696c850b5157d182f2ad8dfe51b09f09d4cb078de1600960009054906101000a900473ffffffffffffffffffffffffffffffffffffffff16426001604051808473ffffffffffffffffffffffffffffffffffffffff1673ffffffffffffffffffffffffffffffffffffffff16815260200183815260200182151515158152602001935050505060405180910390a16000600860186101000a81548160ff021916908360018111156119aa57fe5b02179055506000600860196101000a81548160ff021916908360018111156119ce57fe5b02179055506000600a81905550600960009054906101000a900473ffffffffffffffffffffffffffffffffffffffff1673ffffffffffffffffffffffffffffffffffffffff166108fc6004549081150290604051600060405180830381858888f19350505050158015611a45573d6000803e3d6000fd5b506000600481905550600860039054906101000a900473ffffffffffffffffffffffffffffffffffffffff1673ffffffffffffffffffffffffffffffffffffffff166108fc6005549081150290604051600060405180830381858888f19350505050158015611ab8573d6000803e3d6000fd5b506000600960006101000a81548173ffffffffffffffffffffffffffffffffffffffff021916908373ffffffffffffffffffffffffffffffffffffffff1602179055505b565b600860029054906101000a900460ff16611b80576040517f08c379a00000000000000000000000000000000000000000000000000000000081526004018080602001828103825260168152602001807f636f6e7472616374206e6f7420617661696c61626c650000000000000000000081525060200191505060405180910390fd5b600860179054906101000a900460ff16611c02576040517f08c379a00000000000000000000000000000000000000000000000000000000081526004018080602001828103825260108152602001807f636172206973206e6f742072656164790000000000000000000000000000000081525060200191505060405180910390fd5b600960009054906101000a900473ffffffffffffffffffffffffffffffffffffffff1673ffffffffffffffffffffffffffffffffffffffff168173ffffffffffffffffffffffffffffffffffffffff1614611cc5576040517f08c379a00000000000000000000000000000000000000000000000000000000081526004018080602001828103825260128152602001807f6e6f7420636c69656e742061646472657373000000000000000000000000000081525060200191505060405180910390fd5b600860009054906101000a900460ff16611d47576040517f08c379a00000000000000000000000000000000000000000000000000000000081526004018080602001828103825260128152602001807f436172557365206e6f7420616c6c6f776564000000000000000000000000000081525060200191505060405180910390fd5b6001600860016101000a81548160ff02191690831515021790555050565b600860179054906101000a900460ff1681565b60015481565b600860029054906101000a900460ff16611e00576040517f08c379a00000000000000000000000000000000000000000000000000000000081526004018080602001828103825260168152602001807f636f6e7472616374206e6f7420617661696c61626c650000000000000000000081525060200191505060405180910390fd5b600860179054906101000a900460ff16611e82576040517f08c379a00000000000000000000000000000000000000000000000000000000081526004018080602001828103825260108152602001807f636172206973206e6f742072656164790000000000000000000000000000000081525060200191505060405180910390fd5b6000543414611ef9576040517f08c379a00000000000000000000000000000000000000000000000000000000081526004018080602001828103825260108152602001807f352065746865722072657175697265640000000000000000000000000000000081525060200191505060405180910390fd5b60006001811115611f0657fe5b600860189054906101000a900460ff166001811115611f2157fe5b14611f94576040517f08c379a000000000000000000000000000000000000000000000000000000000815260040180806020018281038252600c8152602001807f436172206e6f742049646c65000000000000000000000000000000000000000081525060200191505060405180910390fd5b3460048190555033600960006101000a81548173ffffffffffffffffffffffffffffffffffffffff021916908373ffffffffffffffffffffffffffffffffffffffff1602179055506001600860186101000a81548160ff02191690836001811115611ffb57fe5b02179055506001600860196101000a81548160ff0219169083600181111561201f57fe5b021790555042600a819055506107084201600b81905550620151804201600c819055507f142c58fcef03e81eca098b1fada4ac83477b6383a146c2b09d71bcb7b556fff3600960009054906101000a900473ffffffffffffffffffffffffffffffffffffffff1634600a54600c54604051808573ffffffffffffffffffffffffffffffffffffffff1673ffffffffffffffffffffffffffffffffffffffff16815260200184815260200183815260200182815260200194505050505060405180910390a1565b600860189054906101000a900460ff1681565b600660009054906101000a900460ff1681565b60035481565b600860029054906101000a900460ff16612193576040517f08c379a00000000000000000000000000000000000000000000000000000000081526004018080602001828103825260168152602001807f636f6e7472616374206e6f7420617661696c61626c650000000000000000000081525060200191505060405180910390fd5b600860179054906101000a900460ff16612215576040517f08c379a00000000000000000000000000000000000000000000000000000000081526004018080602001828103825260108152602001807f636172206973206e6f742072656164790000000000000000000000000000000081525060200191505060405180910390fd5b60018081111561222157fe5b600860189054906101000a900460ff16600181111561223c57fe5b146122af576040517f08c379a000000000000000000000000000000000000000000000000000000000815260040180806020018281038252600c8152602001807f436172206e6f742042757379000000000000000000000000000000000000000081525060200191505060405180910390fd5b612a30600a5401421061232a576040517f08c379a000000000000000000000000000000000000000000000000000000000815260040180806020018281038252601b8152602001807f546f6f206c61746520666f7220626f6f6b696e672063616e63656c000000000081525060200191505060405180910390fd5b600860039054906101000a900473ffffffffffffffffffffffffffffffffffffffff1673ffffffffffffffffffffffffffffffffffffffff168173ffffffffffffffffffffffffffffffffffffffff1614801561239a575060001515600860009054906101000a900460ff161515145b15612457576000600860186101000a81548160ff021916908360018111156123be57fe5b02179055506000600860196101000a81548160ff021916908360018111156123e257fe5b0217905550600960009054906101000a900473ffffffffffffffffffffffffffffffffffffffff1673ffffffffffffffffffffffffffffffffffffffff166108fc6004549081150290604051600060405180830381858888f19350505050158015612451573d6000803e3d6000fd5b506126b3565b600960009054906101000a900473ffffffffffffffffffffffffffffffffffffffff1673ffffffffffffffffffffffffffffffffffffffff168173ffffffffffffffffffffffffffffffffffffffff161480156124c7575060001515600860019054906101000a900460ff161515145b15612584576000600860186101000a81548160ff021916908360018111156124eb57fe5b02179055506000600860196101000a81548160ff0219169083600181111561250f57fe5b0217905550600960009054906101000a900473ffffffffffffffffffffffffffffffffffffffff1673ffffffffffffffffffffffffffffffffffffffff166108fc6004549081150290604051600060405180830381858888f1935050505015801561257e573d6000803e3d6000fd5b506126b2565b600960009054906101000a900473ffffffffffffffffffffffffffffffffffffffff1673ffffffffffffffffffffffffffffffffffffffff168173ffffffffffffffffffffffffffffffffffffffff161480156125f4575060011515600860019054906101000a900460ff161515145b156126b1576000600860186101000a81548160ff0219169083600181111561261857fe5b02179055506000600860196101000a81548160ff0219169083600181111561263c57fe5b0217905550600960009054906101000a900473ffffffffffffffffffffffffffffffffffffffff1673ffffffffffffffffffffffffffffffffffffffff166108fc600e54600454039081150290604051600060405180830381858888f193505050501580156126af573d6000803e3d6000fd5b505b5b5b50565b600a5481565b600860039054906101000a900473ffffffffffffffffffffffffffffffffffffffff1681565b600860009054906101000a900460ff1681565b600960009054906101000a900473ffffffffffffffffffffffffffffffffffffffff1681565b600860019054906101000a900460ff1681565b600b5481565b600c5481565b60055481565b60045481565b600260009054906101000a900460ff1681565b600260019054906101000a900460ff1681565b6000600860026101000a81548160ff021916908315150217905550600860039054906101000a900473ffffffffffffffffffffffffffffffffffffffff1673ffffffffffffffffffffffffffffffffffffffff166108fc6003549081150290604051600060405180830381858888f193505050501580156127f1573d6000803e3d6000fd5b50600960009054906101000a900473ffffffffffffffffffffffffffffffffffffffff1673ffffffffffffffffffffffffffffffffffffffff166108fc6004549081150290604051600060405180830381858888f1935050505015801561285c573d6000803e3d6000fd5b5056fe796f75206861766520746f2077616974206174206c65617374203330206d696e75746573206265747765656e2074686f736520776974686472617773a265627a7a723158207cfba3756c7cc98d366a6d1cf30911eed799be17f42b50b5905b8e922078e90264736f6c63430005100032",
  "source": "pragma solidity >0.5.0 <=0.5.17;\r\n\r\ncontract SmartCar {\r\n    uint256 public CONTRACT_COST = 5 ether;\r\n    uint256 public MAX_DAYS = 3;\r\n    bool public clientReady;\r\n    bool public ownerReady;\r\n    uint256 public ownerDeposit;\r\n    uint256 public clientDeposit;\r\n\r\n    uint256 public ownerBalance;\r\n    bool public extraTimeTaken;\r\n    uint256 extraTime;\r\n\r\n    bool public allowCarUse = false;\r\n    bool public canAccess = false;\r\n    bool public contractAvailable;\r\n\r\n    address payable public owner;\r\n\r\n    bool public carIsReady;\r\n    CarStatus public currentCarStatus;\r\n\r\n    DriverInformation public currentDriverInfo;\r\n    address payable public currentDriverAddress;\r\n    uint256 public currentDriveStartTime;\r\n    uint256 public currentWithdrawTime;\r\n    uint256 public currentDriveRequiredEndTime;\r\n    uint256 public RATE_DAILYRENTAL = 1 ether;\r\n    uint256 public CANCEL_COST = RATE_DAILYRENTAL/2;\r\n\r\n    enum CarStatus {Idle, Busy}\r\n\r\n    enum DriverInformation {None, Customer}\r\n\r\n    event UpdateStatus(string _msg);\r\n    event UserStatus(string _msg, address user, uint256 amount);\r\n\r\n    event E_RentCarDaily(\r\n        address _currentDriverAddress,\r\n        uint256 _val,\r\n        uint256 _currentDriveStartTime,\r\n        uint256 _currentDriveRequiredEndTime\r\n    );\r\n\r\n    event E_EndRentCar(\r\n        address _currentDriverAddress,\r\n        uint256 _now,\r\n        bool _endWithinPeriod\r\n    );\r\n\r\n    modifier onlyIfAvailable {\r\n        require(contractAvailable, \"contract not available\");\r\n        _;\r\n    }\r\n\r\n    modifier onlyIfReady {\r\n        require(carIsReady, \"car is not ready\");\r\n        _;\r\n    }\r\n\r\n    modifier ifOwner() {\r\n        require(owner == msg.sender, \"not owner\");\r\n        _;\r\n    }\r\n\r\n    modifier ifCustomer() {\r\n        require(currentDriverAddress == msg.sender, \"not customer\");\r\n        _;\r\n    }\r\n\r\n    modifier clientAgrees {\r\n        assert(clientReady);\r\n        _;\r\n    }\r\n\r\n    modifier ownerAgrees {\r\n        assert(ownerReady);\r\n        _;\r\n    }\r\n\r\n    constructor() public payable {\r\n        require(msg.value == CONTRACT_COST, \"should deposit 5 ether\");\r\n        owner = msg.sender;\r\n        ownerDeposit = msg.value;\r\n        currentDriverInfo = DriverInformation.None;\r\n        currentCarStatus = CarStatus.Idle;\r\n        carIsReady = true;\r\n        allowCarUse = false;\r\n        canAccess = false;\r\n        ownerReady = false;\r\n        contractAvailable = true;\r\n    }\r\n\r\n    function allowCarUsage(address _user) public onlyIfAvailable {\r\n        require(carIsReady, \"car is not ready\");\r\n        require(_user == owner, \"not owner address\");\r\n        allowCarUse = true;\r\n    }\r\n\r\n    function accessCar(address _user) public onlyIfAvailable {\r\n        require(carIsReady, \"car is not ready\");\r\n        require(_user == currentDriverAddress, \"not client address\");\r\n        require(allowCarUse, \"CarUse not allowed\");\r\n        canAccess = true;\r\n    }\r\n\r\n    function nonAccessWithdrawal(address _user) public onlyIfAvailable {\r\n        require(carIsReady, \"car is not ready\");\r\n        require(_user == currentDriverAddress, \"not client address\");\r\n        require(allowCarUse == false, \"CarUse allowed\");\r\n        require(block.timestamp > currentWithdrawTime, \"you have to wait at least 30 minutes between those withdraws\");\r\n        if(ownerDeposit > RATE_DAILYRENTAL)\r\n        {\r\n            ownerDeposit = ownerDeposit - RATE_DAILYRENTAL;\r\n            currentDriverAddress.transfer(RATE_DAILYRENTAL);\r\n        }\r\n        else\r\n        {\r\n            currentDriverAddress.transfer(ownerDeposit);\r\n            ownerDeposit = 0;\r\n        }\r\n\r\n        currentWithdrawTime = block.timestamp + 30 minutes;\r\n        if(ownerDeposit < RATE_DAILYRENTAL) {\r\n            endSmartContract();\r\n        }\r\n    }\r\n\r\n    function rentCar() public payable onlyIfAvailable {\r\n         require(carIsReady, \"car is not ready\");\r\n         require(msg.value == CONTRACT_COST, \"5 ether required\");\r\n         require(currentCarStatus == CarStatus.Idle, \"Car not Idle\");\r\n            clientDeposit = msg.value;\r\n            currentDriverAddress = msg.sender;\r\n            currentCarStatus = CarStatus.Busy;\r\n            currentDriverInfo = DriverInformation.Customer;\r\n            currentDriveStartTime = block.timestamp;\r\n            currentWithdrawTime = block.timestamp + 30 minutes;\r\n            currentDriveRequiredEndTime = block.timestamp + 1 days;\r\n\r\n            emit E_RentCarDaily(\r\n                currentDriverAddress,\r\n                msg.value,\r\n                currentDriveStartTime,\r\n                currentDriveRequiredEndTime\r\n            );\r\n    }\r\n\r\n    function endRentCar() public onlyIfAvailable {\r\n         require(carIsReady, \"car is not ready\");\r\n         require(currentCarStatus == CarStatus.Busy,\"xxxx\");\r\n         require(currentDriverInfo == DriverInformation.Customer,\"xx\");\r\n         require(canAccess, \"Car was never accessed\");\r\n\r\n         if(block.timestamp > currentDriveRequiredEndTime) {\r\n             extraTimeTaken = true;\r\n         }\r\n\r\n         ownerBalance = RATE_DAILYRENTAL;\r\n         extraTime = (block.timestamp - currentDriveRequiredEndTime) / (24 * 3600); \r\n\r\n        if (extraTimeTaken == true &&  extraTime < MAX_DAYS) {\r\n            ownerBalance += extraTime * RATE_DAILYRENTAL;\r\n        }\r\n        clientDeposit = clientDeposit - ownerBalance;\r\n\r\n        if (extraTimeTaken == true && extraTime >= MAX_DAYS) {\r\n            require(msg.sender == owner,\"xx\");\r\n            emit E_EndRentCar(currentDriverAddress, block.timestamp, false);\r\n            clientDeposit = 0 ether;\r\n            owner.transfer(CONTRACT_COST);\r\n            currentDriverAddress = address(0);\r\n            currentCarStatus = CarStatus.Idle;\r\n            currentDriverInfo = DriverInformation.None;\r\n            currentDriveStartTime = 0;\r\n            endSmartContract();\r\n        } else {\r\n            require(msg.sender == currentDriverAddress, \"x\");\r\n            emit E_EndRentCar(currentDriverAddress, block.timestamp, true);\r\n            currentCarStatus = CarStatus.Idle;\r\n            currentDriverInfo = DriverInformation.None;\r\n            currentDriveStartTime = 0;\r\n            currentDriverAddress.transfer(clientDeposit);\r\n            clientDeposit = 0 ether;\r\n            owner.transfer(ownerBalance);\r\n            currentDriverAddress = address(0);\r\n        }\r\n    }\r\n\r\n    function cancelBooking(address _user) public onlyIfAvailable {\r\n        require(carIsReady, \"car is not ready\");\r\n        require(currentCarStatus == CarStatus.Busy, \"Car not Busy\");\r\n        require(block.timestamp < currentDriveStartTime + 3 hours, \"Too late for booking cancel\");\r\n\r\n        if (_user == owner && allowCarUse == false) {\r\n            currentCarStatus = CarStatus.Idle;\r\n            currentDriverInfo = DriverInformation.None;\r\n            currentDriverAddress.transfer(clientDeposit);\r\n        } else if (_user == currentDriverAddress && canAccess == false) {\r\n            currentCarStatus = CarStatus.Idle;\r\n            currentDriverInfo = DriverInformation.None;\r\n            currentDriverAddress.transfer(clientDeposit);\r\n        } else if (_user == currentDriverAddress && canAccess == true) {\r\n            currentCarStatus = CarStatus.Idle;\r\n            currentDriverInfo = DriverInformation.None;\r\n            currentDriverAddress.transfer(clientDeposit - CANCEL_COST);\r\n        } \r\n    }\r\n\r\n    function endSmartContract() private {\r\n        contractAvailable = false;\r\n        owner.transfer(ownerDeposit);\r\n        currentDriverAddress.transfer(clientDeposit);\r\n    }\r\n\r\n    function ownerEndsSmartContract() public onlyIfAvailable ifOwner {\r\n        require(currentCarStatus == CarStatus.Idle, \"Car not Idle\");\r\n        contractAvailable = false;\r\n        owner.transfer(ownerDeposit);\r\n        currentDriverAddress.transfer(clientDeposit);\r\n    }\r\n\r\n    function setDailyRentalRate(uint256 _rate) public ifOwner {\r\n        RATE_DAILYRENTAL = _rate;\r\n    }\r\n\r\n    function setCarReady(bool _ready) public ifOwner {\r\n        carIsReady = _ready;\r\n    }\r\n}",
  "sourcePath": "D:/Programowanie/github/Car-Sharing-System/contracts/SmartCar.sol",
  "compiler": {
    "name": "solc",
    "version": "0.5.16+commit.9c3226ce.Emscripten.clang"
  },
  "schemaVersion": "3.4.1",
  "updatedAt": "2021-06-04T14:23:18.264Z",
  "networkType": "ethereum",
  "devdoc": {
    "methods": {}
  },
  "userdoc": {
    "methods": {}
  }
}