{
  "contractName": "SmartCar",
  "abi": [
    {
      "inputs": [],
      "payable": true,
      "stateMutability": "payable",
      "type": "constructor"
    },
    {
      "anonymous": false,
      "inputs": [
        {
          "indexed": false,
          "internalType": "address",
          "name": "_currentDriverAddress",
          "type": "address"
        },
        {
          "indexed": false,
          "internalType": "uint256",
          "name": "_now",
          "type": "uint256"
        },
        {
          "indexed": false,
          "internalType": "bool",
          "name": "_endWithinPeriod",
          "type": "bool"
        }
      ],
      "name": "E_EndRentCar",
      "type": "event"
    },
    {
      "anonymous": false,
      "inputs": [
        {
          "indexed": false,
          "internalType": "address",
          "name": "_currentDriverAddress",
          "type": "address"
        },
        {
          "indexed": false,
          "internalType": "uint256",
          "name": "_val",
          "type": "uint256"
        },
        {
          "indexed": false,
          "internalType": "uint256",
          "name": "_currentDriveStartTime",
          "type": "uint256"
        },
        {
          "indexed": false,
          "internalType": "uint256",
          "name": "_currentDriveRequiredEndTime",
          "type": "uint256"
        }
      ],
      "name": "E_RentCarDaily",
      "type": "event"
    },
    {
      "anonymous": false,
      "inputs": [
        {
          "indexed": false,
          "internalType": "string",
          "name": "_msg",
          "type": "string"
        }
      ],
      "name": "UpdateStatus",
      "type": "event"
    },
    {
      "anonymous": false,
      "inputs": [
        {
          "indexed": false,
          "internalType": "string",
          "name": "_msg",
          "type": "string"
        },
        {
          "indexed": false,
          "internalType": "address",
          "name": "user",
          "type": "address"
        },
        {
          "indexed": false,
          "internalType": "uint256",
          "name": "amount",
          "type": "uint256"
        }
      ],
      "name": "UserStatus",
      "type": "event"
    },
    {
      "constant": true,
      "inputs": [],
      "name": "RATE_DAILYRENTAL",
      "outputs": [
        {
          "internalType": "uint256",
          "name": "",
          "type": "uint256"
        }
      ],
      "payable": false,
      "stateMutability": "view",
      "type": "function"
    },
    {
      "constant": true,
      "inputs": [],
      "name": "allowCarUse",
      "outputs": [
        {
          "internalType": "bool",
          "name": "",
          "type": "bool"
        }
      ],
      "payable": false,
      "stateMutability": "view",
      "type": "function"
    },
    {
      "constant": true,
      "inputs": [],
      "name": "balanceToDistribute",
      "outputs": [
        {
          "internalType": "uint256",
          "name": "",
          "type": "uint256"
        }
      ],
      "payable": false,
      "stateMutability": "view",
      "type": "function"
    },
    {
      "constant": true,
      "inputs": [],
      "name": "canAccess",
      "outputs": [
        {
          "internalType": "bool",
          "name": "",
          "type": "bool"
        }
      ],
      "payable": false,
      "stateMutability": "view",
      "type": "function"
    },
    {
      "constant": true,
      "inputs": [],
      "name": "carFree",
      "outputs": [
        {
          "internalType": "bool",
          "name": "",
          "type": "bool"
        }
      ],
      "payable": false,
      "stateMutability": "view",
      "type": "function"
    },
    {
      "constant": true,
      "inputs": [],
      "name": "carIsReady",
      "outputs": [
        {
          "internalType": "bool",
          "name": "",
          "type": "bool"
        }
      ],
      "payable": false,
      "stateMutability": "view",
      "type": "function"
    },
    {
      "constant": true,
      "inputs": [],
      "name": "clientBalance",
      "outputs": [
        {
          "internalType": "uint256",
          "name": "",
          "type": "uint256"
        }
      ],
      "payable": false,
      "stateMutability": "view",
      "type": "function"
    },
    {
      "constant": true,
      "inputs": [],
      "name": "clientDeposit",
      "outputs": [
        {
          "internalType": "uint256",
          "name": "",
          "type": "uint256"
        }
      ],
      "payable": false,
      "stateMutability": "view",
      "type": "function"
    },
    {
      "constant": true,
      "inputs": [],
      "name": "clientReady",
      "outputs": [
        {
          "internalType": "bool",
          "name": "",
          "type": "bool"
        }
      ],
      "payable": false,
      "stateMutability": "view",
      "type": "function"
    },
    {
      "constant": true,
      "inputs": [],
      "name": "currentCarStatus",
      "outputs": [
        {
          "internalType": "enum SmartCar.CarStatus",
          "name": "",
          "type": "uint8"
        }
      ],
      "payable": false,
      "stateMutability": "view",
      "type": "function"
    },
    {
      "constant": true,
      "inputs": [],
      "name": "currentDriveRequiredEndTime",
      "outputs": [
        {
          "internalType": "uint256",
          "name": "",
          "type": "uint256"
        }
      ],
      "payable": false,
      "stateMutability": "view",
      "type": "function"
    },
    {
      "constant": true,
      "inputs": [],
      "name": "currentDriveStartTime",
      "outputs": [
        {
          "internalType": "uint256",
          "name": "",
          "type": "uint256"
        }
      ],
      "payable": false,
      "stateMutability": "view",
      "type": "function"
    },
    {
      "constant": true,
      "inputs": [],
      "name": "currentDriverAddress",
      "outputs": [
        {
          "internalType": "address payable",
          "name": "",
          "type": "address"
        }
      ],
      "payable": false,
      "stateMutability": "view",
      "type": "function"
    },
    {
      "constant": true,
      "inputs": [],
      "name": "currentDriverInfo",
      "outputs": [
        {
          "internalType": "enum SmartCar.DriverInformation",
          "name": "",
          "type": "uint8"
        }
      ],
      "payable": false,
      "stateMutability": "view",
      "type": "function"
    },
    {
      "constant": true,
      "inputs": [],
      "name": "extraTimeTaken",
      "outputs": [
        {
          "internalType": "bool",
          "name": "",
          "type": "bool"
        }
      ],
      "payable": false,
      "stateMutability": "view",
      "type": "function"
    },
    {
      "constant": true,
      "inputs": [],
      "name": "owner",
      "outputs": [
        {
          "internalType": "address payable",
          "name": "",
          "type": "address"
        }
      ],
      "payable": false,
      "stateMutability": "view",
      "type": "function"
    },
    {
      "constant": true,
      "inputs": [],
      "name": "ownerBalance",
      "outputs": [
        {
          "internalType": "uint256",
          "name": "",
          "type": "uint256"
        }
      ],
      "payable": false,
      "stateMutability": "view",
      "type": "function"
    },
    {
      "constant": true,
      "inputs": [],
      "name": "ownerDeposit",
      "outputs": [
        {
          "internalType": "uint256",
          "name": "",
          "type": "uint256"
        }
      ],
      "payable": false,
      "stateMutability": "view",
      "type": "function"
    },
    {
      "constant": true,
      "inputs": [],
      "name": "ownerReady",
      "outputs": [
        {
          "internalType": "bool",
          "name": "",
          "type": "bool"
        }
      ],
      "payable": false,
      "stateMutability": "view",
      "type": "function"
    },
    {
      "constant": false,
      "inputs": [
        {
          "internalType": "address",
          "name": "_user",
          "type": "address"
        }
      ],
      "name": "allowCarUsage",
      "outputs": [],
      "payable": false,
      "stateMutability": "nonpayable",
      "type": "function"
    },
    {
      "constant": false,
      "inputs": [
        {
          "internalType": "address",
          "name": "_user",
          "type": "address"
        }
      ],
      "name": "accessCar",
      "outputs": [],
      "payable": false,
      "stateMutability": "nonpayable",
      "type": "function"
    },
    {
      "constant": false,
      "inputs": [
        {
          "internalType": "address",
          "name": "_user",
          "type": "address"
        }
      ],
      "name": "nonAccessWithdrawal",
      "outputs": [],
      "payable": false,
      "stateMutability": "nonpayable",
      "type": "function"
    },
    {
      "constant": false,
      "inputs": [],
      "name": "endRentCar",
      "outputs": [],
      "payable": false,
      "stateMutability": "nonpayable",
      "type": "function"
    },
    {
      "constant": false,
      "inputs": [
        {
          "internalType": "address",
          "name": "_user",
          "type": "address"
        }
      ],
      "name": "cancelBooking",
      "outputs": [],
      "payable": false,
      "stateMutability": "nonpayable",
      "type": "function"
    },
    {
      "constant": false,
      "inputs": [
        {
          "internalType": "uint256",
          "name": "_rate",
          "type": "uint256"
        }
      ],
      "name": "setDailyRentalRate",
      "outputs": [],
      "payable": false,
      "stateMutability": "nonpayable",
      "type": "function"
    },
    {
      "constant": false,
      "inputs": [
        {
          "internalType": "bool",
          "name": "_ready",
          "type": "bool"
        }
      ],
      "name": "setCarReady",
      "outputs": [],
      "payable": false,
      "stateMutability": "nonpayable",
      "type": "function"
    },
    {
      "constant": false,
      "inputs": [],
      "name": "rentCar",
      "outputs": [],
      "payable": true,
      "stateMutability": "payable",
      "type": "function"
    }
  ],
  "bytecode": "0x60806040526000600960016101000a81548160ff0219169083151502179055506000600960026101000a81548160ff0219169083151502179055506000600d55674563918244f40000600e55674563918244f4000034146100c8576040517f08c379a00000000000000000000000000000000000000000000000000000000081526004018080602001828103825260168152602001807f73686f756c64206465706f73697420352065746865720000000000000000000081525060200191505060405180910390fd5b33600960036101000a81548173ffffffffffffffffffffffffffffffffffffffff021916908373ffffffffffffffffffffffffffffffffffffffff160217905550346001819055506000600960196101000a81548160ff0219169083600181111561012f57fe5b02179055506000600960186101000a81548160ff0219169083600181111561015357fe5b02179055506001600960176101000a81548160ff021916908315150217905550611df0806101826000396000f3fe60806040526004361061019c5760003560e01c80637b1aa45f116100ec578063aa1953cc1161008a578063ee148ba111610064578063ee148ba11461068b578063f07ff641146106b6578063f0cdd8a1146106e1578063f7c113df146107105761019c565b8063aa1953cc14610606578063ba46d7e214610635578063bedcf003146106605761019c565b806389c01b7e116100c657806389c01b7e146104fe5780638da5cb5b146105295780639e4c053014610580578063a71ce901146105af5761019c565b80637b1aa45f146104575780638001d4551461048257806382394694146104ad5761019c565b8063552765e611610159578063670f7d0411610133578063670f7d04146103b65780636ae241b3146103e55780636ba9a9df146103ef57806379882f2b146104285761019c565b8063552765e61461031357806357c9a6a71461034e5780635c11482e146103655761019c565b806308139789146101a157806314c59401146101da578063182f9ac71461022b5780632a7ff2141461027c57806350720e05146102ab57806351cef993146102d6575b600080fd5b3480156101ad57600080fd5b506101b661073f565b604051808260018111156101c657fe5b60ff16815260200191505060405180910390f35b3480156101e657600080fd5b50610229600480360360208110156101fd57600080fd5b81019080803573ffffffffffffffffffffffffffffffffffffffff169060200190929190505050610752565b005b34801561023757600080fd5b5061027a6004803603602081101561024e57600080fd5b81019080803573ffffffffffffffffffffffffffffffffffffffff1690602001909291905050506108a9565b005b34801561028857600080fd5b50610291610a0c565b604051808215151515815260200191505060405180910390f35b3480156102b757600080fd5b506102c0610a1f565b6040518082815260200191505060405180910390f35b3480156102e257600080fd5b50610311600480360360208110156102f957600080fd5b81019080803515159060200190929190505050610a25565b005b34801561031f57600080fd5b5061034c6004803603602081101561033657600080fd5b8101908080359060200190929190505050610b05565b005b34801561035a57600080fd5b50610363610bd2565b005b34801561037157600080fd5b506103b46004803603602081101561038857600080fd5b81019080803573ffffffffffffffffffffffffffffffffffffffff169060200190929190505050611279565b005b3480156103c257600080fd5b506103cb61138c565b604051808215151515815260200191505060405180910390f35b6103ed61139f565b005b3480156103fb57600080fd5b50610404611689565b6040518082600181111561041457fe5b60ff16815260200191505060405180910390f35b34801561043457600080fd5b5061043d61169c565b604051808215151515815260200191505060405180910390f35b34801561046357600080fd5b5061046c6116af565b6040518082815260200191505060405180910390f35b34801561048e57600080fd5b506104976116b5565b6040518082815260200191505060405180910390f35b3480156104b957600080fd5b506104fc600480360360208110156104d057600080fd5b81019080803573ffffffffffffffffffffffffffffffffffffffff1690602001909291905050506116bb565b005b34801561050a57600080fd5b50610513611c2f565b6040518082815260200191505060405180910390f35b34801561053557600080fd5b5061053e611c35565b604051808273ffffffffffffffffffffffffffffffffffffffff1673ffffffffffffffffffffffffffffffffffffffff16815260200191505060405180910390f35b34801561058c57600080fd5b50610595611c5b565b604051808215151515815260200191505060405180910390f35b3480156105bb57600080fd5b506105c4611c6e565b604051808273ffffffffffffffffffffffffffffffffffffffff1673ffffffffffffffffffffffffffffffffffffffff16815260200191505060405180910390f35b34801561061257600080fd5b5061061b611c94565b604051808215151515815260200191505060405180910390f35b34801561064157600080fd5b5061064a611ca7565b6040518082815260200191505060405180910390f35b34801561066c57600080fd5b50610675611cad565b6040518082815260200191505060405180910390f35b34801561069757600080fd5b506106a0611cb3565b6040518082815260200191505060405180910390f35b3480156106c257600080fd5b506106cb611cb9565b6040518082815260200191505060405180910390f35b3480156106ed57600080fd5b506106f6611cbf565b604051808215151515815260200191505060405180910390f35b34801561071c57600080fd5b50610725611cd1565b604051808215151515815260200191505060405180910390f35b600960199054906101000a900460ff1681565b600960179054906101000a900460ff166107d4576040517f08c379a00000000000000000000000000000000000000000000000000000000081526004018080602001828103825260108152602001807f636172206973206e6f742072656164790000000000000000000000000000000081525060200191505060405180910390fd5b600a60009054906101000a900473ffffffffffffffffffffffffffffffffffffffff1673ffffffffffffffffffffffffffffffffffffffff168173ffffffffffffffffffffffffffffffffffffffff161461082b57fe5b60001515600960029054906101000a900460ff1615151461084857fe5b600254600154016003819055503373ffffffffffffffffffffffffffffffffffffffff166108fc6003549081150290604051600060405180830381858888f1935050505015801561089d573d6000803e3d6000fd5b50600060048190555050565b600960179054906101000a900460ff1661092b576040517f08c379a00000000000000000000000000000000000000000000000000000000081526004018080602001828103825260108152602001807f636172206973206e6f742072656164790000000000000000000000000000000081525060200191505060405180910390fd5b600960039054906101000a900473ffffffffffffffffffffffffffffffffffffffff1673ffffffffffffffffffffffffffffffffffffffff168173ffffffffffffffffffffffffffffffffffffffff16146109ee576040517f08c379a00000000000000000000000000000000000000000000000000000000081526004018080602001828103825260118152602001807f6e6f74206f776e6572206164647265737300000000000000000000000000000081525060200191505060405180910390fd5b6001600960016101000a81548160ff02191690831515021790555050565b600960009054906101000a900460ff1681565b600e5481565b3373ffffffffffffffffffffffffffffffffffffffff16600960039054906101000a900473ffffffffffffffffffffffffffffffffffffffff1673ffffffffffffffffffffffffffffffffffffffff1614610ae8576040517f08c379a00000000000000000000000000000000000000000000000000000000081526004018080602001828103825260098152602001807f6e6f74206f776e6572000000000000000000000000000000000000000000000081525060200191505060405180910390fd5b80600960176101000a81548160ff02191690831515021790555050565b3373ffffffffffffffffffffffffffffffffffffffff16600960039054906101000a900473ffffffffffffffffffffffffffffffffffffffff1673ffffffffffffffffffffffffffffffffffffffff1614610bc8576040517f08c379a00000000000000000000000000000000000000000000000000000000081526004018080602001828103825260098152602001807f6e6f74206f776e6572000000000000000000000000000000000000000000000081525060200191505060405180910390fd5b80600e8190555050565b600960179054906101000a900460ff16610c54576040517f08c379a00000000000000000000000000000000000000000000000000000000081526004018080602001828103825260108152602001807f636172206973206e6f742072656164790000000000000000000000000000000081525060200191505060405180910390fd5b600180811115610c6057fe5b600960189054906101000a900460ff166001811115610c7b57fe5b14610cee576040517f08c379a00000000000000000000000000000000000000000000000000000000081526004018080602001828103825260048152602001807f787878780000000000000000000000000000000000000000000000000000000081525060200191505060405180910390fd5b600180811115610cfa57fe5b600960199054906101000a900460ff166001811115610d1557fe5b14610d88576040517f08c379a00000000000000000000000000000000000000000000000000000000081526004018080602001828103825260028152602001807f787800000000000000000000000000000000000000000000000000000000000081525060200191505060405180910390fd5b6730927f74c9de0000600e5403600d8190555060011515600560009054906101000a900460ff161515148015610dc45750600460075460065401105b15610de057600e5460075402600d600082825401925050819055505b60011515600560009054906101000a900460ff161515148015610e0a575060046007546006540110155b1561106957600960039054906101000a900473ffffffffffffffffffffffffffffffffffffffff1673ffffffffffffffffffffffffffffffffffffffff163373ffffffffffffffffffffffffffffffffffffffff1614610ed2576040517f08c379a00000000000000000000000000000000000000000000000000000000081526004018080602001828103825260028152602001807f787800000000000000000000000000000000000000000000000000000000000081525060200191505060405180910390fd5b7fe82220aacc601b0a8a556e696c850b5157d182f2ad8dfe51b09f09d4cb078de1600a60009054906101000a900473ffffffffffffffffffffffffffffffffffffffff16426000604051808473ffffffffffffffffffffffffffffffffffffffff1673ffffffffffffffffffffffffffffffffffffffff16815260200183815260200182151515158152602001935050505060405180910390a16000600381905550600154600254016004819055503373ffffffffffffffffffffffffffffffffffffffff166108fc6004549081150290604051600060405180830381858888f19350505050158015610fc9573d6000803e3d6000fd5b506000600a60006101000a81548173ffffffffffffffffffffffffffffffffffffffff021916908373ffffffffffffffffffffffffffffffffffffffff1602179055506000600960186101000a81548160ff0219169083600181111561102b57fe5b02179055506000600960196101000a81548160ff0219169083600181111561104f57fe5b021790555060006008819055506000600681905550611277565b600a60009054906101000a900473ffffffffffffffffffffffffffffffffffffffff1673ffffffffffffffffffffffffffffffffffffffff163373ffffffffffffffffffffffffffffffffffffffff161461112c576040517f08c379a00000000000000000000000000000000000000000000000000000000081526004018080602001828103825260018152602001807f780000000000000000000000000000000000000000000000000000000000000081525060200191505060405180910390fd5b7fe82220aacc601b0a8a556e696c850b5157d182f2ad8dfe51b09f09d4cb078de1600a60009054906101000a900473ffffffffffffffffffffffffffffffffffffffff16426001604051808473ffffffffffffffffffffffffffffffffffffffff1673ffffffffffffffffffffffffffffffffffffffff16815260200183815260200182151515158152602001935050505060405180910390a16000600960186101000a81548160ff021916908360018111156111e557fe5b02179055506000600960196101000a81548160ff0219169083600181111561120957fe5b02179055506000600881905550600060068190555060016000806101000a81548160ff0219169083151502179055506001600060016101000a81548160ff0219169083151502179055506001600960006101000a81548160ff021916908315150217905550611276611ce4565b5b565b600960179054906101000a900460ff166112fb576040517f08c379a00000000000000000000000000000000000000000000000000000000081526004018080602001828103825260108152602001807f636172206973206e6f742072656164790000000000000000000000000000000081525060200191505060405180910390fd5b600a60009054906101000a900473ffffffffffffffffffffffffffffffffffffffff1673ffffffffffffffffffffffffffffffffffffffff168173ffffffffffffffffffffffffffffffffffffffff161461135557600080fd5b600960019054906101000a900460ff1661136e57600080fd5b6001600960026101000a81548160ff02191690831515021790555050565b600960179054906101000a900460ff1681565b600960179054906101000a900460ff16611421576040517f08c379a00000000000000000000000000000000000000000000000000000000081526004018080602001828103825260108152602001807f636172206973206e6f742072656164790000000000000000000000000000000081525060200191505060405180910390fd5b600e543414611498576040517f08c379a00000000000000000000000000000000000000000000000000000000081526004018080602001828103825260108152602001807f352065746865722072657175697265640000000000000000000000000000000081525060200191505060405180910390fd5b600060018111156114a557fe5b600960189054906101000a900460ff1660018111156114c057fe5b14611533576040517f08c379a000000000000000000000000000000000000000000000000000000000815260040180806020018281038252600c8152602001807f436172206e6f742049646c65000000000000000000000000000000000000000081525060200191505060405180910390fd5b3460028190555033600a60006101000a81548173ffffffffffffffffffffffffffffffffffffffff021916908373ffffffffffffffffffffffffffffffffffffffff1602179055506001600960186101000a81548160ff0219169083600181111561159a57fe5b02179055506001600960196101000a81548160ff021916908360018111156115be57fe5b021790555042600b81905550620151804201600c8190555034600d600082825401925050819055507f142c58fcef03e81eca098b1fada4ac83477b6383a146c2b09d71bcb7b556fff3600a60009054906101000a900473ffffffffffffffffffffffffffffffffffffffff1634600b54600c54604051808573ffffffffffffffffffffffffffffffffffffffff1673ffffffffffffffffffffffffffffffffffffffff16815260200184815260200183815260200182815260200194505050505060405180910390a1565b600960189054906101000a900460ff1681565b600560009054906101000a900460ff1681565b60015481565b600d5481565b600960179054906101000a900460ff1661173d576040517f08c379a00000000000000000000000000000000000000000000000000000000081526004018080602001828103825260108152602001807f636172206973206e6f742072656164790000000000000000000000000000000081525060200191505060405180910390fd5b600960039054906101000a900473ffffffffffffffffffffffffffffffffffffffff1673ffffffffffffffffffffffffffffffffffffffff168173ffffffffffffffffffffffffffffffffffffffff161480156117ad575060001515600960019054906101000a900460ff161515145b1561186a576000600960186101000a81548160ff021916908360018111156117d157fe5b02179055506000600960196101000a81548160ff021916908360018111156117f557fe5b0217905550600a60009054906101000a900473ffffffffffffffffffffffffffffffffffffffff1673ffffffffffffffffffffffffffffffffffffffff166108fc6002549081150290604051600060405180830381858888f19350505050158015611864573d6000803e3d6000fd5b50611c2c565b600a60009054906101000a900473ffffffffffffffffffffffffffffffffffffffff1673ffffffffffffffffffffffffffffffffffffffff168173ffffffffffffffffffffffffffffffffffffffff161480156118da575060001515600960029054906101000a900460ff161515145b15611975576000600960186101000a81548160ff021916908360018111156118fe57fe5b02179055506000600960196101000a81548160ff0219169083600181111561192257fe5b02179055503373ffffffffffffffffffffffffffffffffffffffff166108fc6002549081150290604051600060405180830381858888f1935050505015801561196f573d6000803e3d6000fd5b50611c2b565b600a60009054906101000a900473ffffffffffffffffffffffffffffffffffffffff1673ffffffffffffffffffffffffffffffffffffffff168173ffffffffffffffffffffffffffffffffffffffff161480156119e5575060011515600960029054906101000a900460ff161515145b15611aef576000600960186101000a81548160ff02191690836001811115611a0957fe5b02179055506000600960196101000a81548160ff02191690836001811115611a2d57fe5b02179055503373ffffffffffffffffffffffffffffffffffffffff166108fc600e54600254039081150290604051600060405180830381858888f19350505050158015611a7e573d6000803e3d6000fd5b50600960039054906101000a900473ffffffffffffffffffffffffffffffffffffffff1673ffffffffffffffffffffffffffffffffffffffff166108fc600e549081150290604051600060405180830381858888f19350505050158015611ae9573d6000803e3d6000fd5b50611c2a565b600960039054906101000a900473ffffffffffffffffffffffffffffffffffffffff1673ffffffffffffffffffffffffffffffffffffffff168173ffffffffffffffffffffffffffffffffffffffff16148015611b5f575060011515600960019054906101000a900460ff161515145b15611c29576000600960186101000a81548160ff02191690836001811115611b8357fe5b02179055506000600960196101000a81548160ff02191690836001811115611ba757fe5b0217905550600e5460015403600181905550600a60009054906101000a900473ffffffffffffffffffffffffffffffffffffffff1673ffffffffffffffffffffffffffffffffffffffff166108fc600e54600254019081150290604051600060405180830381858888f19350505050158015611c27573d6000803e3d6000fd5b505b5b5b5b50565b600b5481565b600960039054906101000a900473ffffffffffffffffffffffffffffffffffffffff1681565b600960019054906101000a900460ff1681565b600a60009054906101000a900473ffffffffffffffffffffffffffffffffffffffff1681565b600960029054906101000a900460ff1681565b600c5481565b60045481565b60035481565b60025481565b6000809054906101000a900460ff1681565b600060019054906101000a900460ff1681565b6000600d549050600960039054906101000a900473ffffffffffffffffffffffffffffffffffffffff1673ffffffffffffffffffffffffffffffffffffffff166108fc829081150290604051600060405180830381858888f1935050505015611db8577ffbf2866ab63740741f358479d82bb93999720f54e4497f1466197a2962e8206360405180806020018281038252601a8152602001807f4d6f6e6579207472616e7366657272656420746f206f776e657200000000000081525060200191505060405180910390a16000600d819055505b5056fea265627a7a72315820935a3cd6b5f595607adaea85cfbbb7773bf3f605f4cc1e92857fae887ebe151364736f6c63430005100032",
  "source": "pragma solidity >=0.5.0 <0.9.0;\r\n\r\ncontract SmartCar {\r\n    bool public clientReady;\r\n    bool public ownerReady;\r\n    uint256 public ownerDeposit;\r\n    uint256 public clientDeposit;\r\n\r\n    uint256 public clientBalance;\r\n    uint256 public ownerBalance;\r\n\r\n    bool public extraTimeTaken;\r\n\r\n    uint256 driveRequiredEndTime;\r\n    uint256 extraTime;\r\n\r\n    uint256 driveStartTime;\r\n\r\n    bool public carFree;\r\n\r\n    //const ownerIdentity = EthCrypto.createIdentity();\r\n\r\n    modifier clientAgrees {\r\n        assert(clientReady);\r\n        _;\r\n    }\r\n\r\n    modifier ownerAgrees {\r\n        assert(ownerReady);\r\n        _;\r\n    }\r\n\r\n    constructor() public payable {\r\n        require(msg.value == 5 ether, \"should deposit 5 ether\");\r\n        owner = msg.sender;\r\n        ownerDeposit = msg.value;\r\n        currentDriverInfo = DriverInformation.None;\r\n        currentCarStatus = CarStatus.Idle;\r\n        carIsReady = true;\r\n    }\r\n\r\n    bool public allowCarUse = false;\r\n\r\n    function allowCarUsage(address _user) public onlyIfReady {\r\n        require(_user == owner, \"not owner address\");\r\n        allowCarUse = true;\r\n    }\r\n\r\n    bool public canAccess = false;\r\n\r\n    function accessCar(address _user) public onlyIfReady {\r\n        require(_user == currentDriverAddress);\r\n        require(allowCarUse);\r\n        canAccess = true;\r\n    }\r\n\r\n    function nonAccessWithdrawal(address _user) public onlyIfReady {\r\n        assert(_user == currentDriverAddress);\r\n        assert(canAccess == false);\r\n        clientBalance = ownerDeposit + clientDeposit;\r\n        msg.sender.transfer(clientBalance);\r\n        ownerBalance = 0;\r\n    }\r\n\r\n    function endRentCar() public onlyIfReady {\r\n         require(currentCarStatus == CarStatus.Busy,\"xxxx\");\r\n         require(currentDriverInfo == DriverInformation.Customer,\"xx\");\r\n\r\n        balanceToDistribute = RATE_DAILYRENTAL - 3.5 ether;\r\n        if (extraTimeTaken == true && (driveRequiredEndTime + extraTime) < 4) {\r\n            balanceToDistribute += extraTime * RATE_DAILYRENTAL;\r\n        }\r\n\r\n        if (extraTimeTaken == true && (driveRequiredEndTime + extraTime) >= 4) {\r\n             require(msg.sender == owner,\"xx\");\r\n            emit E_EndRentCar(currentDriverAddress, block.timestamp, false);\r\n            clientBalance = 0 ether;\r\n            ownerBalance = clientDeposit + ownerDeposit;\r\n            msg.sender.transfer(ownerBalance);\r\n            currentDriverAddress = address(0);\r\n            currentCarStatus = CarStatus.Idle;\r\n            currentDriverInfo = DriverInformation.None;\r\n            driveStartTime = 0;\r\n            driveRequiredEndTime = 0;\r\n        } else {\r\n            require(msg.sender == currentDriverAddress, \"x\");\r\n            emit E_EndRentCar(currentDriverAddress, block.timestamp, true);\r\n            currentCarStatus = CarStatus.Idle;\r\n            currentDriverInfo = DriverInformation.None;\r\n            driveStartTime = 0;\r\n            driveRequiredEndTime = 0;\r\n            clientReady = true;\r\n            ownerReady = true;\r\n            carFree = true;\r\n            distributeEarnings();\r\n        }\r\n    }\r\n\r\n    function cancelBooking(address _user) public onlyIfReady {\r\n        if (_user == owner && allowCarUse == false) {\r\n            currentCarStatus = CarStatus.Idle;\r\n            currentDriverInfo = DriverInformation.None;\r\n            currentDriverAddress.transfer(clientDeposit);\r\n        } else if (_user == currentDriverAddress && canAccess == false) {\r\n            currentCarStatus = CarStatus.Idle;\r\n            currentDriverInfo = DriverInformation.None;\r\n            msg.sender.transfer(clientDeposit);\r\n        } else if (_user == currentDriverAddress && canAccess == true) {\r\n            currentCarStatus = CarStatus.Idle;\r\n            currentDriverInfo = DriverInformation.None;\r\n            msg.sender.transfer(clientDeposit - RATE_DAILYRENTAL);\r\n            owner.transfer(RATE_DAILYRENTAL);\r\n        } else if (_user == owner && allowCarUse == true) {\r\n            currentCarStatus = CarStatus.Idle;\r\n            currentDriverInfo = DriverInformation.None;\r\n            ownerDeposit = ownerDeposit - RATE_DAILYRENTAL;\r\n            currentDriverAddress.transfer(clientDeposit + RATE_DAILYRENTAL);\r\n        }\r\n    }\r\n\r\n    enum CarStatus {Idle, Busy}\r\n\r\n    enum DriverInformation {None, Customer}\r\n\r\n    event UpdateStatus(string _msg);\r\n    event UserStatus(string _msg, address user, uint256 amount);\r\n\r\n    event E_RentCarDaily(\r\n        address _currentDriverAddress,\r\n        uint256 _val,\r\n        uint256 _currentDriveStartTime,\r\n        uint256 _currentDriveRequiredEndTime\r\n    );\r\n\r\n    event E_EndRentCar(\r\n        address _currentDriverAddress,\r\n        uint256 _now,\r\n        bool _endWithinPeriod\r\n    );\r\n\r\n    modifier onlyIfReady {\r\n        require(carIsReady, \"car is not ready\");\r\n        _;\r\n    }\r\n\r\n    modifier ifOwner() {\r\n        require(owner == msg.sender, \"not owner\");\r\n        _;\r\n    }\r\n\r\n    modifier ifCustomer() {\r\n        require(currentDriverAddress == msg.sender, \"not customer\");\r\n        _;\r\n    }\r\n\r\n    address payable public owner;\r\n\r\n    bool public carIsReady;\r\n    CarStatus public currentCarStatus;\r\n\r\n    DriverInformation public currentDriverInfo;\r\n    address payable public currentDriverAddress;\r\n    uint256 public currentDriveStartTime;\r\n    uint256 public currentDriveRequiredEndTime;\r\n    uint256 public balanceToDistribute = 0;\r\n    uint256 public RATE_DAILYRENTAL = 5 ether;\r\n\r\n    function setDailyRentalRate(uint256 _rate) public ifOwner {\r\n        RATE_DAILYRENTAL = _rate;\r\n    }\r\n\r\n    function setCarReady(bool _ready) public ifOwner {\r\n        carIsReady = _ready;\r\n    }\r\n\r\n    function rentCar() public payable onlyIfReady {\r\n        //TODO: raczej to powinno wyrzuca bd\r\n         require(msg.value == RATE_DAILYRENTAL, \"5 ether required\");\r\n         require(currentCarStatus == CarStatus.Idle, \"Car not Idle\");\r\n            clientDeposit = msg.value;\r\n            currentDriverAddress = msg.sender;\r\n            currentCarStatus = CarStatus.Busy;\r\n            currentDriverInfo = DriverInformation.Customer;\r\n            currentDriveStartTime = block.timestamp;\r\n            currentDriveRequiredEndTime = block.timestamp + 1 days;\r\n            //balanceToDistribute += msg.value - 500;\r\n            balanceToDistribute += msg.value;\r\n\r\n            emit E_RentCarDaily(\r\n                currentDriverAddress,\r\n                msg.value,\r\n                currentDriveStartTime,\r\n                currentDriveRequiredEndTime\r\n            );\r\n    }\r\n\r\n    function distributeEarnings() private {\r\n        uint256 amount = balanceToDistribute;\r\n\r\n        if (owner.send(amount)) {\r\n            emit UpdateStatus(\"Money transferred to owner\");\r\n            balanceToDistribute = 0;\r\n        }\r\n    }\r\n}",
  "sourcePath": "D:/io/Car-Sharing-System/contracts/SmartCar.sol",
  "compiler": {
    "name": "solc",
    "version": "0.5.16+commit.9c3226ce.Emscripten.clang"
  },
  "schemaVersion": "3.4.1",
  "updatedAt": "2021-05-19T18:04:11.785Z",
  "devdoc": {
    "methods": {}
  },
  "userdoc": {
    "methods": {}
  }
}