{
  "contractName": "TimeTest",
  "abi": [
    {
      "anonymous": false,
      "inputs": [],
      "name": "E_my",
      "type": "event"
    },
    {
      "constant": true,
      "inputs": [],
      "name": "m_var",
      "outputs": [
        {
          "internalType": "uint256",
          "name": "",
          "type": "uint256"
        }
      ],
      "payable": false,
      "stateMutability": "view",
      "type": "function"
    },
    {
      "constant": true,
      "inputs": [],
      "name": "timestamp",
      "outputs": [
        {
          "internalType": "uint256",
          "name": "",
          "type": "uint256"
        }
      ],
      "payable": false,
      "stateMutability": "view",
      "type": "function"
    },
    {
      "constant": false,
      "inputs": [],
      "name": "updateTimeStamp",
      "outputs": [],
      "payable": false,
      "stateMutability": "nonpayable",
      "type": "function"
    },
    {
      "constant": false,
      "inputs": [],
      "name": "getTimeStamp",
      "outputs": [
        {
          "internalType": "uint256",
          "name": "",
          "type": "uint256"
        }
      ],
      "payable": false,
      "stateMutability": "nonpayable",
      "type": "function"
    },
    {
      "constant": false,
      "inputs": [],
      "name": "getBlockTime",
      "outputs": [
        {
          "internalType": "uint256",
          "name": "",
          "type": "uint256"
        }
      ],
      "payable": false,
      "stateMutability": "nonpayable",
      "type": "function"
    },
    {
      "constant": false,
      "inputs": [],
      "name": "emitEvent",
      "outputs": [],
      "payable": false,
      "stateMutability": "nonpayable",
      "type": "function"
    },
    {
      "constant": false,
      "inputs": [
        {
          "internalType": "uint256",
          "name": "_new",
          "type": "uint256"
        }
      ],
      "name": "setVar",
      "outputs": [],
      "payable": false,
      "stateMutability": "nonpayable",
      "type": "function"
    },
    {
      "constant": false,
      "inputs": [],
      "name": "emptyFunc",
      "outputs": [],
      "payable": false,
      "stateMutability": "nonpayable",
      "type": "function"
    },
    {
      "constant": false,
      "inputs": [
        {
          "internalType": "uint256",
          "name": "_passed",
          "type": "uint256"
        }
      ],
      "name": "requirePassed",
      "outputs": [],
      "payable": false,
      "stateMutability": "nonpayable",
      "type": "function"
    }
  ],
  "bytecode": "0x608060405234801561001057600080fd5b506102a3806100206000396000f3fe608060405234801561001057600080fd5b50600436106100935760003560e01c806387ceff091161006657806387ceff09146100e4578063b80777ea14610102578063c4aa5ba414610120578063da235b221461013e578063fa3501b71461015c57610093565b80633664a87714610098578063397d2895146100a25780633a885d79146100ac5780637b0cb839146100da575b600080fd5b6100a061018a565b005b6100aa610193565b005b6100d8600480360360208110156100c257600080fd5b8101908080359060200190929190505050610195565b005b6100e261019f565b005b6100ec6101cd565b6040518082815260200191505060405180910390f35b61010a6101d5565b6040518082815260200191505060405180910390f35b6101286101db565b6040518082815260200191505060405180910390f35b6101466101e1565b6040518082815260200191505060405180910390f35b6101886004803603602081101561017257600080fd5b81019080803590602001909291905050506101ea565b005b42600081905550565b565b8060018190555050565b7f2b4b59327f20a3d595a523894395a03e4b091a825024675f8a776d1c23722ddd60405160405180910390a1565b600042905090565b60005481565b60015481565b60008054905090565b80600054014211610263576040517f08c379a000000000000000000000000000000000000000000000000000000000815260040180806020018281038252600e8152602001807f6661696c6564207265717569726500000000000000000000000000000000000081525060200191505060405180910390fd5b60636001819055505056fea265627a7a7231582060acb0cc6a03f8078521940f01bf8dcdbb0829da2b97631877fbb58c2f8fbdca64736f6c63430005100032",
  "source": "pragma solidity >=0.5.0 <0.9.0;\r\n\r\ncontract TimeTest {\r\n    event E_my();\r\n\r\n    uint256 public timestamp;\r\n    uint public m_var;\r\n\r\n    function updateTimeStamp() public{\r\n        timestamp = block.timestamp;\r\n    }\r\n\r\n    function  getTimeStamp() public returns(uint256){\r\n        return timestamp;\r\n    }\r\n\r\n    function  getBlockTime() public returns(uint256){\r\n        return block.timestamp;\r\n    }\r\n\r\n    function emitEvent() public {\r\n        emit E_my();\r\n    }\r\n\r\n    function setVar(uint _new) public {\r\n        m_var = _new;\r\n    }\r\n\r\n    function emptyFunc() public {\r\n\r\n    }\r\n\r\n    function requirePassed(uint _passed) public {\r\n        require(block.timestamp > timestamp + _passed, \"failed require\");\r\n\r\n        m_var = 99;\r\n    }\r\n}",
  "sourcePath": "D:/Programowanie/github/Car-Sharing-System/contracts/TimeTest.sol",
  "compiler": {
    "name": "solc",
    "version": "0.5.16+commit.9c3226ce.Emscripten.clang"
  },
  "schemaVersion": "3.4.1",
  "updatedAt": "2021-06-04T13:22:06.281Z",
  "devdoc": {
    "methods": {}
  },
  "userdoc": {
    "methods": {}
  }
}